:020000040800F2
:1000000000000220B5030008310200083F0200088A
:10001000470200084F0200085702000800000000D5
:100020000000000000000000000000005F02000867
:100030006D020008000000007B0200088902000831
:10004000050400080504000805040008050400086C
:10005000050400080504000805040008050400085C
:10006000050400080504000805040008050400084C
:10007000050400080504000805040008050400083C
:10008000050400080504000805040008000000003D
:10009000000000000000000000000000050400084F
:1000A000050400080504000805040008050400080C
:1000B00005040008050400080504000805040008FC
:1000C00005040008050400080504000805040008EC
:1000D00005040008050400080504000800000000ED
:1000E00005040008050400080504000800000000DD
:1000F00000000000000000000000000005040008EF
:1001000000000000050400080504000805040008BC
:1001100000000000000000000000000000000000DF
:10012000050400080504000805040008050400088B
:1001300005040008000000000000000000000000AE
:10014000000000000000000000000000050400089E
:10015000050400080504000805040008050400085B
:10016000050400080504000800000000000000006D
:10017000000000000000000000000000000000007F
:10018000000000000504000800000000000000005E
:08019000050400080504000845
:1001980010B5054C237833B9044B13B10448AFF3B9
:1001A80000800123237010BD000000200000000023
:1001B8000804000808B5034B1BB103490348AFF313
:1001C800008008BD000000000400002008040008AA
:1001D80070B50D4B0D4D5B1B9C100026A64209D136
:1001E80000F00EF90A4D0B4B5B1B9C100026A64233
:1001F80005D170BD55F8043B98470136EEE755F830
:10020800043B98470136F2E7200400082004000860
:10021800200400082404000880B400AF0023184616
:10022800BD465DF8047B704780B400AF00BFBD4693
:100238005DF8047B704780B400AF00BFFDE780B471
:1002480000AF00BFFDE780B400AF00BFFDE780B49A
:1002580000AF00BFFDE780B400AF00BFBD465DF84A
:10026800047B704780B400AF00BFBD465DF8047BD7
:10027800704780B400AF00BFBD465DF8047B70478F
:1002880080B400AF044B1B680133034A136000BFFE
:10029800BD465DF8047B70471C00002080B500AFA8
:1002A800164BD3F88830154A43F47003C2F88830E7
:1002B800134B1B68124A43F001031360104B0022D2
:1002C8009A600F4B1B680E4A23F0847323F4803323
:1002D80013600B4B0B4A5A60094B1B68084A23F4FE
:1002E80080231360064B0022DA6000F00DF8034B00
:1002F8004FF000629A6000BF80BD00BF00ED00E0D3
:10030800003802401030002480B400AF234B1B6C2F
:10031800224A43F080531364214B1B68204A43F45C
:10032800404313601D4B1D4A9B6893601B4B1B4A3F
:100338009B689360194B9B68184A43F480539360F9
:10034800164B184A5A60154B1B68144A43F08073C1
:10035800136000BF114B1B6803F00073002BF9D02A
:10036800114B40F202721A600C4B9B680B4A23F047
:1003780003039360094B9B68084A43F002039360A8
:1003880000BF064B9B6803F00C03082BF9D100BF94
:1003980000BFBD465DF8047B704700BF00380240CF
:1003A8000070004010640107003C0240DFF834D0C0
:1003B800FFF774FF0C480D490D4A002302E0D4589A
:1003C800C4500433C4188C42F9D30A4A0A4C002397
:1003D80001E013600432A242FBD3FFF7F9FEFFF7F6
:1003E8001BFF7047000002200000002000000020D2
:1003F800280400080000002020000020FEE700007C
:10040800F8B500BFF8BC08BC9E467047F8B500BFF9
:08041800F8BC08BC9E467047C9
:04042000BD01000812
:040424009901000832
:04000005080003B537
:00000001FF
